{
  "address": "0xAeaF7CA9de306BCcfb6341018644288AeFC41D62",
  "abi": [
    {
      "inputs": [
        {
          "internalType": "address payable",
          "name": "diceGameAddress",
          "type": "address"
        }
      ],
      "stateMutability": "nonpayable",
      "type": "constructor"
    },
    {
      "inputs": [
        {
          "internalType": "address",
          "name": "owner",
          "type": "address"
        }
      ],
      "name": "OwnableInvalidOwner",
      "type": "error"
    },
    {
      "inputs": [
        {
          "internalType": "address",
          "name": "account",
          "type": "address"
        }
      ],
      "name": "OwnableUnauthorizedAccount",
      "type": "error"
    },
    {
      "anonymous": false,
      "inputs": [
        {
          "indexed": true,
          "internalType": "address",
          "name": "previousOwner",
          "type": "address"
        },
        {
          "indexed": true,
          "internalType": "address",
          "name": "newOwner",
          "type": "address"
        }
      ],
      "name": "OwnershipTransferred",
      "type": "event"
    },
    {
      "inputs": [],
      "name": "diceGame",
      "outputs": [
        {
          "internalType": "contract DiceGame",
          "name": "",
          "type": "address"
        }
      ],
      "stateMutability": "view",
      "type": "function"
    },
    {
      "inputs": [],
      "name": "nonce",
      "outputs": [
        {
          "internalType": "uint256",
          "name": "",
          "type": "uint256"
        }
      ],
      "stateMutability": "view",
      "type": "function"
    },
    {
      "inputs": [],
      "name": "owner",
      "outputs": [
        {
          "internalType": "address",
          "name": "",
          "type": "address"
        }
      ],
      "stateMutability": "view",
      "type": "function"
    },
    {
      "inputs": [],
      "name": "renounceOwnership",
      "outputs": [],
      "stateMutability": "nonpayable",
      "type": "function"
    },
    {
      "inputs": [],
      "name": "riggedRoll",
      "outputs": [],
      "stateMutability": "nonpayable",
      "type": "function"
    },
    {
      "inputs": [
        {
          "internalType": "address",
          "name": "newOwner",
          "type": "address"
        }
      ],
      "name": "transferOwnership",
      "outputs": [],
      "stateMutability": "nonpayable",
      "type": "function"
    },
    {
      "inputs": [
        {
          "internalType": "address",
          "name": "to",
          "type": "address"
        },
        {
          "internalType": "uint256",
          "name": "amount",
          "type": "uint256"
        }
      ],
      "name": "withdraw",
      "outputs": [],
      "stateMutability": "nonpayable",
      "type": "function"
    },
    {
      "stateMutability": "payable",
      "type": "receive"
    }
  ],
  "transactionHash": "0xf1450332632e01349a26382aaf7389822e6ddcb0e3128d9353173638967a47ae",
  "args": [
    "0x7A93aD188117D0eAb361C4509CEB7b8895C2680E"
  ],
  "numDeployments": 1,
  "solcInputHash": "0d55c10fe63739ceb1a7f4575fc870fc",
  "bytecode": "0x608060405234801561001057600080fd5b5060405161070f38038061070f83398101604081905261002f916100d4565b338061005557604051631e4fbdf760e01b81526000600482015260240160405180910390fd5b61005e81610084565b50600180546001600160a01b0319166001600160a01b0392909216919091179055610104565b600080546001600160a01b038381166001600160a01b0319831681178455604051919092169283917f8be0079c531659141344cd1fd0a4f28419497f9722a3daafe3b4186f6b6457e09190a35050565b6000602082840312156100e657600080fd5b81516001600160a01b03811681146100fd57600080fd5b9392505050565b6105fc806101136000396000f3fe6080604052600436106100745760003560e01c80638e288fd11161004e5780638e288fd1146100e3578063affed0e014610103578063f2fde38b14610127578063f3fef3a31461014757600080fd5b80636b5e97f814610080578063715018a6146100975780638da5cb5b146100ac57600080fd5b3661007b57005b600080fd5b34801561008c57600080fd5b50610095610167565b005b3480156100a357600080fd5b50610095610318565b3480156100b857600080fd5b506000546001600160a01b03165b6040516001600160a01b0390911681526020015b60405180910390f35b3480156100ef57600080fd5b506001546100c6906001600160a01b031681565b34801561010f57600080fd5b5061011960025481565b6040519081526020016100da565b34801561013357600080fd5b50610095610142366004610510565b61032c565b34801561015357600080fd5b50610095610162366004610532565b61036a565b66071afd498d00004710156101c35760405162461bcd60e51b815260206004820152601b60248201527f4c657373207468616e2072657175697265642062616c616e636521000000000060448201526064015b60405180910390fd5b60006101d0600143610572565b6001546002546040805193406020850181905260609390931b6bffffffffffffffffffffffff1916908401526054830152915060009060740160408051601f1981840301815291905280516020909101209050600061023060108361058b565b905061023b8161040d565b600281111561028c5760405162461bcd60e51b815260206004820152601a60248201527f536f727279212054727920796f7572204c75636b20416761696e00000000000060448201526064016101ba565b600160009054906101000a90046001600160a01b03166001600160a01b0316637d789dee66071afd498d00006040518263ffffffff1660e01b81526004016000604051808303818588803b1580156102e357600080fd5b505af11580156102f7573d6000803e3d6000fd5b505060028054935091506000905061030e836105ad565b9190505550505050565b610320610452565b61032a600061047f565b565b610334610452565b6001600160a01b03811661035e57604051631e4fbdf760e01b8152600060048201526024016101ba565b6103678161047f565b50565b610372610452565b6000826001600160a01b03168260405160006040518083038185875af1925050503d80600081146103bf576040519150601f19603f3d011682016040523d82523d6000602084013e6103c4565b606091505b50509050806104085760405162461bcd60e51b815260206004820152601060248201526f5472616e73666572206661696c65642160801b60448201526064016101ba565b505050565b6103678160405160240161042391815260200190565b60408051601f198184030181529190526020810180516001600160e01b031663f82c50f160e01b1790526104cf565b6000546001600160a01b0316331461032a5760405163118cdaa760e01b81523360048201526024016101ba565b600080546001600160a01b038381166001600160a01b0319831681178455604051919092169283917f8be0079c531659141344cd1fd0a4f28419497f9722a3daafe3b4186f6b6457e09190a35050565b6103678160006a636f6e736f6c652e6c6f679050600080835160208501845afa505050565b80356001600160a01b038116811461050b57600080fd5b919050565b60006020828403121561052257600080fd5b61052b826104f4565b9392505050565b6000806040838503121561054557600080fd5b61054e836104f4565b946020939093013593505050565b634e487b7160e01b600052601160045260246000fd5b818103818111156105855761058561055c565b92915050565b6000826105a857634e487b7160e01b600052601260045260246000fd5b500690565b6000600182016105bf576105bf61055c565b506001019056fea2646970667358221220458c09661eeeb0381b569e0e96e2d2930f4a9d810f41990249d2580c13e4652864736f6c63430008140033",
  "devdoc": {
    "errors": {
      "OwnableInvalidOwner(address)": [
        {
          "details": "The owner is not a valid owner account. (eg. `address(0)`)"
        }
      ],
      "OwnableUnauthorizedAccount(address)": [
        {
          "details": "The caller account is not authorized to perform an operation."
        }
      ]
    },
    "kind": "dev",
    "methods": {
      "owner()": {
        "details": "Returns the address of the current owner."
      },
      "renounceOwnership()": {
        "details": "Leaves the contract without owner. It will not be possible to call `onlyOwner` functions. Can only be called by the current owner. NOTE: Renouncing ownership will leave the contract without an owner, thereby disabling any functionality that is only available to the owner."
      },
      "transferOwnership(address)": {
        "details": "Transfers ownership of the contract to a new account (`newOwner`). Can only be called by the current owner."
      }
    },
    "version": 1
  },
  "userdoc": {
    "kind": "user",
    "methods": {},
    "version": 1
  },
  "storageLayout": {
    "storage": [
      {
        "astId": 8,
        "contract": "contracts/RiggedRoll.sol:RiggedRoll",
        "label": "_owner",
        "offset": 0,
        "slot": "0",
        "type": "t_address"
      },
      {
        "astId": 351,
        "contract": "contracts/RiggedRoll.sol:RiggedRoll",
        "label": "diceGame",
        "offset": 0,
        "slot": "1",
        "type": "t_contract(DiceGame)341"
      },
      {
        "astId": 353,
        "contract": "contracts/RiggedRoll.sol:RiggedRoll",
        "label": "nonce",
        "offset": 0,
        "slot": "2",
        "type": "t_uint256"
      }
    ],
    "types": {
      "t_address": {
        "encoding": "inplace",
        "label": "address",
        "numberOfBytes": "20"
      },
      "t_contract(DiceGame)341": {
        "encoding": "inplace",
        "label": "contract DiceGame",
        "numberOfBytes": "20"
      },
      "t_uint256": {
        "encoding": "inplace",
        "label": "uint256",
        "numberOfBytes": "32"
      }
    }
  }
}